{
  "contractName": "Election",
  "abi": [
    {
      "constant": true,
      "inputs": [],
      "name": "candidatesCount",
      "outputs": [
        {
          "name": "",
          "type": "uint256"
        }
      ],
      "payable": false,
      "stateMutability": "view",
      "type": "function"
    },
    {
      "constant": true,
      "inputs": [
        {
          "name": "",
          "type": "uint256"
        }
      ],
      "name": "candidates",
      "outputs": [
        {
          "name": "id",
          "type": "uint256"
        },
        {
          "name": "name",
          "type": "string"
        },
        {
          "name": "voteCount",
          "type": "uint256"
        }
      ],
      "payable": false,
      "stateMutability": "view",
      "type": "function"
    },
    {
      "constant": true,
      "inputs": [
        {
          "name": "",
          "type": "address"
        }
      ],
      "name": "voters",
      "outputs": [
        {
          "name": "",
          "type": "bool"
        }
      ],
      "payable": false,
      "stateMutability": "view",
      "type": "function"
    },
    {
      "constant": true,
      "inputs": [],
      "name": "electionStarted",
      "outputs": [
        {
          "name": "",
          "type": "bool"
        }
      ],
      "payable": false,
      "stateMutability": "view",
      "type": "function"
    },
    {
      "constant": true,
      "inputs": [],
      "name": "admin",
      "outputs": [
        {
          "name": "",
          "type": "address"
        }
      ],
      "payable": false,
      "stateMutability": "view",
      "type": "function"
    },
    {
      "inputs": [],
      "payable": false,
      "stateMutability": "nonpayable",
      "type": "constructor"
    },
    {
      "anonymous": false,
      "inputs": [
        {
          "indexed": true,
          "name": "_candidateId",
          "type": "uint256"
        }
      ],
      "name": "votedEvent",
      "type": "event"
    },
    {
      "anonymous": false,
      "inputs": [
        {
          "indexed": false,
          "name": "totalVotes",
          "type": "uint256"
        },
        {
          "indexed": false,
          "name": "winnerId",
          "type": "uint256"
        },
        {
          "indexed": false,
          "name": "winnerName",
          "type": "string"
        },
        {
          "indexed": false,
          "name": "winnerVotes",
          "type": "uint256"
        }
      ],
      "name": "electionEndedEvent",
      "type": "event"
    },
    {
      "constant": false,
      "inputs": [
        {
          "name": "_name",
          "type": "string"
        }
      ],
      "name": "addCandidate",
      "outputs": [],
      "payable": false,
      "stateMutability": "nonpayable",
      "type": "function"
    },
    {
      "constant": false,
      "inputs": [],
      "name": "startVoting",
      "outputs": [],
      "payable": false,
      "stateMutability": "nonpayable",
      "type": "function"
    },
    {
      "constant": false,
      "inputs": [],
      "name": "endVoting",
      "outputs": [],
      "payable": false,
      "stateMutability": "nonpayable",
      "type": "function"
    },
    {
      "constant": false,
      "inputs": [
        {
          "name": "_candidateId",
          "type": "uint256"
        }
      ],
      "name": "vote",
      "outputs": [],
      "payable": true,
      "stateMutability": "payable",
      "type": "function"
    },
    {
      "constant": true,
      "inputs": [],
      "name": "getElectionResults",
      "outputs": [
        {
          "name": "",
          "type": "uint256"
        },
        {
          "name": "",
          "type": "string"
        },
        {
          "name": "",
          "type": "uint256"
        }
      ],
      "payable": false,
      "stateMutability": "view",
      "type": "function"
    },
    {
      "constant": true,
      "inputs": [],
      "name": "getTotalVotes",
      "outputs": [
        {
          "name": "",
          "type": "uint256"
        }
      ],
      "payable": false,
      "stateMutability": "view",
      "type": "function"
    }
  ],
  "bytecode": "0x608060405260008060146101000a81548160ff0219169083151502179055503480156200002b57600080fd5b50336000806101000a81548173ffffffffffffffffffffffffffffffffffffffff021916908373ffffffffffffffffffffffffffffffffffffffff160217905550620000bb6040805190810160405280600b81526020017f43616e646964617465203100000000000000000000000000000000000000000081525062000110640100000000026401000000009004565b6200010a6040805190810160405280600b81526020017f43616e646964617465203200000000000000000000000000000000000000000081525062000110640100000000026401000000009004565b62000303565b6000809054906101000a900473ffffffffffffffffffffffffffffffffffffffff1673ffffffffffffffffffffffffffffffffffffffff163373ffffffffffffffffffffffffffffffffffffffff16141515620001d5576040517f08c379a000000000000000000000000000000000000000000000000000000000815260040180806020018281038252601d8152602001807f4f6e6c792061646d696e2063616e206164642063616e6469646174657300000081525060200191505060405180910390fd5b600360008154809291906001019190505550606060405190810160405280600354815260200182815260200160008152506001600060035481526020019081526020016000206000820151816000015560208201518160010190805190602001906200024392919062000254565b506040820151816002015590505050565b828054600181600116156101000203166002900490600052602060002090601f016020900481019282601f106200029757805160ff1916838001178555620002c8565b82800160010185558215620002c8579182015b82811115620002c7578251825591602001919060010190620002aa565b5b509050620002d79190620002db565b5090565b6200030091905b80821115620002fc576000816000905550600101620002e2565b5090565b90565b6110df80620003136000396000f3fe6080604052600436106100af576000357c0100000000000000000000000000000000000000000000000000000000900463ffffffff1680630121b93f146100b45780631ec6b60a146100e25780632d35a8a2146100f95780633477ee2e14610124578063462e91ec146101e65780639a0e7d66146102ae578063a3ec138d146102d9578063c3403ddf14610342578063d5346da114610359578063eccf1f1014610388578063f851a44014610426575b600080fd5b6100e0600480360360208110156100ca57600080fd5b810190808035906020019092919050505061047d565b005b3480156100ee57600080fd5b506100f76108c9565b005b34801561010557600080fd5b5061010e6109d0565b6040518082815260200191505060405180910390f35b34801561013057600080fd5b5061015d6004803603602081101561014757600080fd5b81019080803590602001909291905050506109d6565b6040518084815260200180602001838152602001828103825284818151815260200191508051906020019080838360005b838110156101a957808201518184015260208101905061018e565b50505050905090810190601f1680156101d65780820380516001836020036101000a031916815260200191505b5094505050505060405180910390f35b3480156101f257600080fd5b506102ac6004803603602081101561020957600080fd5b810190808035906020019064010000000081111561022657600080fd5b82018360208201111561023857600080fd5b8035906020019184600183028401116401000000008311171561025a57600080fd5b91908080601f016020809104026020016040519081016040528093929190818152602001838380828437600081840152601f19601f820116905080830192505050505050509192919290505050610a98565b005b3480156102ba57600080fd5b506102c3610bd9565b6040518082815260200191505060405180910390f35b3480156102e557600080fd5b50610328600480360360208110156102fc57600080fd5b81019080803573ffffffffffffffffffffffffffffffffffffffff169060200190929190505050610c22565b604051808215151515815260200191505060405180910390f35b34801561034e57600080fd5b50610357610c42565b005b34801561036557600080fd5b5061036e610dfa565b604051808215151515815260200191505060405180910390f35b34801561039457600080fd5b5061039d610e0d565b6040518084815260200180602001838152602001828103825284818151815260200191508051906020019080838360005b838110156103e95780820151818401526020810190506103ce565b50505050905090810190601f1680156104165780820380516001836020036101000a031916815260200191505b5094505050505060405180910390f35b34801561043257600080fd5b5061043b610fe9565b604051808273ffffffffffffffffffffffffffffffffffffffff1673ffffffffffffffffffffffffffffffffffffffff16815260200191505060405180910390f35b600060149054906101000a900460ff161515610501576040517f08c379a000000000000000000000000000000000000000000000000000000000815260040180806020018281038252601c8152602001807f456c656374696f6e20686173206e6f742073746172746564207965740000000081525060200191505060405180910390fd5b6000809054906101000a900473ffffffffffffffffffffffffffffffffffffffff1673ffffffffffffffffffffffffffffffffffffffff163373ffffffffffffffffffffffffffffffffffffffff16141515156105c6576040517f08c379a000000000000000000000000000000000000000000000000000000000815260040180806020018281038252601c8152602001807f41646d696e206973206e6f7420616c6c6f77656420746f20766f74650000000081525060200191505060405180910390fd5b600260003373ffffffffffffffffffffffffffffffffffffffff1673ffffffffffffffffffffffffffffffffffffffff16815260200190815260200160002060009054906101000a900460ff16151515610688576040517f08c379a000000000000000000000000000000000000000000000000000000000815260040180806020018281038252600d8152602001807f416c726561647920766f7465640000000000000000000000000000000000000081525060200191505060405180910390fd5b60008111801561069a57506003548111155b151561070e576040517f08c379a00000000000000000000000000000000000000000000000000000000081526004018080602001828103825260118152602001807f496e76616c69642063616e64696461746500000000000000000000000000000081525060200191505060405180910390fd5b662386f26fc1000034101515156107b3576040517f08c379a00000000000000000000000000000000000000000000000000000000081526004018080602001828103825260278152602001807f596f75206d7573742073656e64206174206c6561737420302e3031204554482081526020017f746f20766f74650000000000000000000000000000000000000000000000000081525060400191505060405180910390fd5b6001600260003373ffffffffffffffffffffffffffffffffffffffff1673ffffffffffffffffffffffffffffffffffffffff16815260200190815260200160002060006101000a81548160ff02191690831515021790555060016000828152602001908152602001600020600201600081548092919060010191905055506000809054906101000a900473ffffffffffffffffffffffffffffffffffffffff1673ffffffffffffffffffffffffffffffffffffffff166108fc349081150290604051600060405180830381858888f19350505050158015610898573d6000803e3d6000fd5b50807ffff3c900d938d21d0990d786e819f29b8d05c1ef587b462b939609625b684b1660405160405180910390a250565b6000809054906101000a900473ffffffffffffffffffffffffffffffffffffffff1673ffffffffffffffffffffffffffffffffffffffff163373ffffffffffffffffffffffffffffffffffffffff161415156109b3576040517f08c379a00000000000000000000000000000000000000000000000000000000081526004018080602001828103825260218152602001807f4f6e6c792061646d696e2063616e2073746172742074686520656c656374696f81526020017f6e0000000000000000000000000000000000000000000000000000000000000081525060400191505060405180910390fd5b6001600060146101000a81548160ff021916908315150217905550565b60035481565b6001602052806000526040600020600091509050806000015490806001018054600181600116156101000203166002900480601f016020809104026020016040519081016040528092919081815260200182805460018160011615610100020316600290048015610a885780601f10610a5d57610100808354040283529160200191610a88565b820191906000526020600020905b815481529060010190602001808311610a6b57829003601f168201915b5050505050908060020154905083565b6000809054906101000a900473ffffffffffffffffffffffffffffffffffffffff1673ffffffffffffffffffffffffffffffffffffffff163373ffffffffffffffffffffffffffffffffffffffff16141515610b5c576040517f08c379a000000000000000000000000000000000000000000000000000000000815260040180806020018281038252601d8152602001807f4f6e6c792061646d696e2063616e206164642063616e6469646174657300000081525060200191505060405180910390fd5b60036000815480929190600101919050555060606040519081016040528060035481526020018281526020016000815250600160006003548152602001908152602001600020600082015181600001556020820151816001019080519060200190610bc892919061100e565b506040820151816002015590505050565b600080600090506000600190505b60035481111515610c1a576001600082815260200190815260200160002060020154820191508080600101915050610be7565b508091505090565b60026020528060005260406000206000915054906101000a900460ff1681565b6000809054906101000a900473ffffffffffffffffffffffffffffffffffffffff1673ffffffffffffffffffffffffffffffffffffffff163373ffffffffffffffffffffffffffffffffffffffff16141515610d06576040517f08c379a000000000000000000000000000000000000000000000000000000000815260040180806020018281038252601f8152602001807f4f6e6c792061646d696e2063616e20656e642074686520656c656374696f6e0081525060200191505060405180910390fd5b60008060146101000a81548160ff021916908315150217905550600060606000610d2e610e0d565b9250925092506000610d3e610bd9565b90507fa1103999e7882501122e05af4c99db2f7834a1e1136c1efa2a30244f2f305235818585856040518085815260200184815260200180602001838152602001828103825284818151815260200191508051906020019080838360005b83811015610db7578082015181840152602081019050610d9c565b50505050905090810190601f168015610de45780820380516001836020036101000a031916815260200191505b509550505050505060405180910390a150505050565b600060149054906101000a900460ff1681565b6000606060008060149054906101000a900460ff16151515610e97576040517f08c379a00000000000000000000000000000000000000000000000000000000081526004018080602001828103825260188152602001807f456c656374696f6e206973207374696c6c20616374697665000000000000000081525060200191505060405180910390fd5b600080905060008090506060602060405190810160405280600081525090506000600190505b60035481111515610fd7578360016000838152602001908152602001600020600201541115610fca576001600082815260200190815260200160002060020154935060016000828152602001908152602001600020600001549250600160008281526020019081526020016000206001018054600181600116156101000203166002900480601f016020809104026020016040519081016040528092919081815260200182805460018160011615610100020316600290048015610fc25780601f10610f9757610100808354040283529160200191610fc2565b820191906000526020600020905b815481529060010190602001808311610fa557829003601f168201915b505050505091505b8080600101915050610ebd565b50818184955095509550505050909192565b6000809054906101000a900473ffffffffffffffffffffffffffffffffffffffff1681565b828054600181600116156101000203166002900490600052602060002090601f016020900481019282601f1061104f57805160ff191683800117855561107d565b8280016001018555821561107d579182015b8281111561107c578251825591602001919060010190611061565b5b50905061108a919061108e565b5090565b6110b091905b808211156110ac576000816000905550600101611094565b5090565b9056fea165627a7a723058206f250efd53885cb1006a59076a0bc0a7b2f4dc53ff89814997021f46b77fcf0b0029",
  "source": "// SPDX-License-Identifier: MIT\r\npragma solidity ^0.5.0;\r\n\r\ncontract Election {\r\n    address payable public admin;\r\n    bool public electionStarted = false;\r\n\r\n    struct Candidate {\r\n        uint id;\r\n        string name;\r\n        uint voteCount;\r\n    }\r\n\r\n    mapping(uint => Candidate) public candidates;\r\n    mapping(address => bool) public voters;\r\n\r\n    uint public candidatesCount;\r\n\r\n    event votedEvent(uint indexed _candidateId);\r\n    event electionEndedEvent(uint totalVotes, uint winnerId, string winnerName, uint winnerVotes);\r\n\r\n    constructor() public {\r\n        admin = msg.sender;\r\n        addCandidate(\"Candidate 1\");\r\n        addCandidate(\"Candidate 2\");\r\n    }\r\n\r\n    function addCandidate(string memory _name) public {\r\n        require(msg.sender == admin, \"Only admin can add candidates\");\r\n        candidatesCount++;\r\n        candidates[candidatesCount] = Candidate(candidatesCount, _name, 0);\r\n    }\r\n\r\n    function startVoting() public {\r\n        require(msg.sender == admin, \"Only admin can start the election\");\r\n        electionStarted = true;\r\n    }\r\n\r\n    function endVoting() public {\r\n        require(msg.sender == admin, \"Only admin can end the election\");\r\n        electionStarted = false;\r\n        \r\n        // Emit election ended event\r\n        (uint winnerId, string memory winnerName, uint winnerVotes) = getElectionResults();\r\n        uint totalVotes = getTotalVotes();\r\n        \r\n        emit electionEndedEvent(totalVotes, winnerId, winnerName, winnerVotes);\r\n    }\r\n\r\n    function vote(uint _candidateId) public payable {\r\n        require(electionStarted, \"Election has not started yet\");\r\n        require(msg.sender != admin, \"Admin is not allowed to vote\");\r\n        require(!voters[msg.sender], \"Already voted\");\r\n        require(_candidateId > 0 && _candidateId <= candidatesCount, \"Invalid candidate\");\r\n        require(msg.value >= 0.01 ether, \"You must send at least 0.01 ETH to vote\");\r\n\r\n        voters[msg.sender] = true;\r\n        candidates[_candidateId].voteCount++;\r\n\r\n        admin.transfer(msg.value);\r\n        emit votedEvent(_candidateId);\r\n    }\r\n\r\n    function getElectionResults() public view returns (uint, string memory, uint) {\r\n        require(!electionStarted, \"Election is still active\");\r\n        \r\n        uint maxVotes = 0;\r\n        uint winnerId = 0;\r\n        string memory winnerName = \"\";\r\n        \r\n        for (uint i = 1; i <= candidatesCount; i++) {\r\n            if (candidates[i].voteCount > maxVotes) {\r\n                maxVotes = candidates[i].voteCount;\r\n                winnerId = candidates[i].id;\r\n                winnerName = candidates[i].name;\r\n            }\r\n        }\r\n        \r\n        return (winnerId, winnerName, maxVotes);\r\n    }\r\n\r\n    function getTotalVotes() public view returns (uint) {\r\n        uint total = 0;\r\n        for (uint i = 1; i <= candidatesCount; i++) {\r\n            total += candidates[i].voteCount;\r\n        }\r\n        return total;\r\n    }\r\n}\r\n",
  "sourcePath": "C:\\Users\\Ftayza\\Desktop\\2emeIng\\Stage CRMN\\ElectionDapp\\smart-contracts\\contracts\\Election.sol",
  "compiler": {
    "name": "solc",
    "version": "0.5.0+commit.1d4f565a.Emscripten.clang"
  },
  "schemaVersion": "3.4.16",
  "updatedAt": "2025-08-16T13:01:30.211Z",
  "networkType": "ethereum",
  "devdoc": {
    "methods": {}
  },
  "userdoc": {
    "methods": {}
  }
}